:100000000C9434000C943E000C943E000C943E0082
:100010000C943E000C943E000C943E000C943E0068
:100020000C943E000C943E000C943E000C943E0058
:100030000C943E000C943E000C943E000C943E0048
:100040000C943E000C943E000C943E000C943E0038
:100050000C943E000C943E000C943E000C943E0028
:100060000C943E000C943E0011241FBECFEFD8E04C
:10007000DEBFCDBF0E9452000C9463000C940000C0
:100080009093C5008093C40088E08093C10086E00F
:100090008093C20008959091C00095FFFCCF80939B
:1000A000C60008958CE090E00E94400083E30E9427
:1000B0004B002FE38DE093E0215080409040E1F72A
:0A00C00000C00000F3CFF894FFCF5A
:00000001FF
