S01200004C6162365F50617274322E73726563A5
S11300000C9434000C9451000C9451000C94510045
S11300100C9451000C9451000C9451000C94510018
S11300200C9451000C9451000C9451000C94510008
S11300300C9451000C9451000C9413010C94510035
S11300400C9451000C9451000C9451000C945100E8
S11300500C9451000C9451000C9451000C945100D8
S11300600C9451000C94510011241FBECFEFD8E022
S1130070DEBFCDBF11E0A0E0B1E0E2EFF2E002C0EC
S113008005900D92AA30B107D9F721E0AAE0B1E0BA
S113009001C01D92A131B207E1F70E9437010C940F
S11300A077010C9400008AB1806F8AB987B18863A4
S11300B087B98BB180618BB98BB180628BB98BB1FD
S11300C080648BB98BB180688BB988B1877F88B91C
S11300D088B18F7D88B90895CF93DF93EC01562FB3
S11300E040E030C09E01ADECBCEC0E9468019695E6
S11300F0879596958795969587959C01220F331F32
S1130100880F991F880F991F880F991F820F931FBB
S11301109E01281B390BC901242F30E09927FC01CB
S1130120E050FF4F8081F901E55FFE4F80839E011F
S11301300E946801EC01D695C795D695C795D695CA
S1130140C7954F5F443070F2543038F4E52FF0E037
S1130150E55FFE4F808180688083DF91CF910895B1
S1130160E0910A01F0E0E55FFE4F208188B1877FCE
S113017088B988B18F7D88B990E011C0222324F416
S113018088B1806188B903C088B18F7E88B988B18D
S1130190886088B988B1877F88B9220F9F5F9830BB
S11301A068F38BB180618BB98BB180628BB98BB1F1
S11301B080648BB98BB180688BB988B1806288B94F
S11301C088B18F7D88B980910A01811104C08BB1F7
S11301D08F778BB913C080910A01813021F48BB1E0
S11301E08F7B8BB90BC080910A01823021F48BB1D3
S11301F08F7D8BB903C08BB18F7E8BB980910A013F
S11302008F5F80930A0180910A01843010F010926C
S11302100A01089582E084BD9DE497BD80936E0039
S113022084E085BD08951F920F920FB60F9211249A
S11302302F933F934F935F936F937F938F939F93EA
S1130240AF93BF93EF93FF930E94B000FF91EF91A0
S1130250BF91AF919F918F917F916F915F914F91DA
S11302603F912F910F900FBE0F901F9018950E94F1
S113027053000E940A0180910F01909110016FEFC9
S11302800E946C0078942FEF80E792E02150804028
S11302909040E1F700C0000080910F01909110019F
S11302A001969093100180930F0180910F0190911A
S11302B010018031974220F01092100110920F012A
S11302C080910F01909110016FEF0E946C00DBCFC1
S11302D0A29FB001B39FC001A39F700D811D112483
S11302E0911DB29F700D811D1124911D0895F894E4
S10502F0FFCF3A
S10D02F23F065B4F666D7D077F6FCA
S9030000FC
