:100000000C9434000C943E000C943E000C943E0082
:100010000C943E000C943E000C943E000C943E0068
:100020000C943E000C943E000C943E000C943E0058
:100030000C943E000C943E000C943E000C943E0048
:100040000C943E000C943E000C943E000C943E0038
:100050000C943E000C943E000C943E000C943E0028
:100060000C943E000C943E0011241FBECFEFD8E04C
:10007000DEBFCDBF0E947C000C9481000C94000078
:100080008AB1806F8AB987B1886387B98BB1806183
:100090008BB98BB180628BB98BB180648BB98BB11A
:1000A0008F778BB988B1877F88B988B18F7D88B900
:1000B000089588B1877F88B988B18F7D88B990E02D
:1000C00027E011C0222324F488B1806188B903C0DD
:1000D00088B18F7E88B988B1886088B988B1877FF8
:1000E00088B9220F9F5F983068F388B1806288B921
:1000F00088B18F7D88B908950E9440000E94590000
:06010000FFCFF894FFCFD1
:00000001FF
