:100000000C9434000C943E000C943E000C943E0082
:100010000C943E000C943E000C943E000C943E0068
:100020000C943E000C943E000C943E000C943E0058
:100030000C943E000C943E000C943E000C943E0048
:100040000C943E000C943E000C943E000C943E0038
:100050000C943E000C943E000C943E000C943E0028
:100060000C943E000C943E0011241FBECFEFD8E04C
:10007000DEBFCDBF0E9453000C940D010C94000014
:100080009093C5008093C40088E08093C10086E00F
:100090008093C2000895E0ECF0E0908195FFFDCFE1
:1000A0008093C6000895CF93DF93CDB7DEB7CC57CA
:1000B000D1090FB6F894DEBF0FBECDBF8CE090E043
:1000C0000E94400040E022E030E011C0C901BF01C1
:1000D0000E94EA00892B29F03196E217F307B1F765
:1000E0006BC02F5F3F4F2D3281E0380749F023303E
:1000F000310508F461C020FFF4CFE2E0F0E0ECCF7E
:100100005E019DE7A90EB11CFE0131966F01F6015B
:10011000E190F1906F0197013695279536952795D7
:10012000ABE7B4E10E94FE0096958795805D0E9442
:100130004B009701ADECBCEC0E94FE008C011695C3
:100140000795169507951695079598010E94FE004C
:100150009695879596958795969587959C01220FFC
:10016000331F880F991F880F991F880F991F820FBF
:10017000931F9801281B390BC901805D0E944B0019
:10018000C801880F991F000F111F000F111F000FCA
:10019000111F080F191FC701801B910B805D0E9462
:1001A0004B008CE20E944B0080E20E944B00AC149A
:1001B000BD0409F0ACCFA8CFE42FF0E0EE0FFF1F95
:1001C00081E090E08C0F9D1FE80FF91F31832083A1
:1001D0004F5F87CFAA1BBB1B51E107C0AA1FBB1FE4
:1001E000A617B70710F0A61BB70B881F991F5A95C3
:1001F000A9F780959095BC01CD010895A29FB0010B
:10020000B39FC001A39F700D811D1124911DB29F4A
:0E021000700D811D1124911D0895F894FFCFEB
:00000001FF
