:100000000C9434000C943E000C943E000C943E0082
:100010000C943E000C943E000C943E000C943E0068
:100020000C943E000C943E000C943E000C943E0058
:100030000C943E000C943E000C943E000C943E0048
:100040000C943E000C943E000C943E000C943E0038
:100050000C943E000C943E000C943E000C943E0028
:100060000C943E000C943E0011241FBECFEFD8E04C
:10007000DEBFCDBF0E9445000C9463000C940000CD
:1000800095B180E2892785B9089584B1806284B9E9
:100090000E9451000E945A008823E1F30E94400010
:1000A000F9CF82E084BD16BC9DE497BD85BB84E09A
:1000B00085BD089595B3892F827091FF03C082E0BA
:0A00C00085BB81E00895F894FFCF9E
:00000001FF
