S01000006C61623220342E362E73726563FB
S11300000C9434000C943E000C943E000C943E007E
S11300100C943E000C943E000C943E000C943E0064
S11300200C943E000C943E000C943E000C943E0054
S11300300C943E000C943E000C943E000C943E0044
S11300400C943E000C943E000C943E000C943E0034
S11300500C943E000C943E000C943E000C943E0024
S11300600C943E000C943E0011241FBECFEFD8E048
S1130070DEBFCDBF0E9453000C946A000C940000B4
S11300809093C5008093C40088E08093C10086E00B
S11300908093C2000895E0ECF0E0908195FFFDCFDD
S11300A08093C60008958CE090E00E94400083E3B2
S11300B00E944B0084E30E944B0085E30E944B00A6
S11300C02FE38DE093E0215080409040E1F700C0A1
S10B00D00000EDCFF894FFCF0E
S9030000FC
