:100000000C9434000C9451000C9451000C94510049
:100010000C9451000C9451000C9451000C9451001C
:100020000C9451000C9451000C9451000C9451000C
:100030000C9451000C9451000C9451000C945100FC
:100040000C9451000C9451000C9451000C945100EC
:100050000C9451000C9451000C9451000C945100DC
:100060000C9451000C94510011241FBECFEFD8E026
:10007000DEBFCDBF11E0A0E0B1E0EAE1F3E002C0F5
:1000800005900D92A630B107D9F721E0A6E0B1E0C6
:1000900001C01D92AA30B207E1F70E9482000C94C1
:1000A0008B010C94000082E480937C0084E88093B0
:1000B0007A0010927B000895ECE7F0E09081907F49
:1000C0008F70892B8083EAE7F0E0808180648083F1
:1000D00080917A0086FDFCCF209178008091790094
:1000E00090E0982F8827822B08959C01A8E8B3E11F
:1000F0000E947C012FEF33E040E050E00E945A0163
:10010000C90108950E9453008CE090E00E94AA006B
:1001100082E00E945C009093090180930801809125
:100120000801909109010E94750090930701809346
:10013000060180910601909107010E94BC0080E0B9
:1001400091E00E944D018FE493EC0197F1F700C01C
:100150000000DECF9093C5008093C40088E08093B8
:10016000C10086E08093C20008959091C00095FF81
:10017000FCCF8093C6000895CF93DF93EC01883EB7
:1001800023E09207A0F09C01369527953695279598
:1001900036952795A5ECB0E20E947C019295829558
:1001A0008F7089279F708927805D0E94B500C436B3
:1001B000D10548F19E013695279536952795ABE7F1
:1001C000B4E10E947C01AC01569547959A01ADECD3
:1001D000BCEC0E947C01969587959695879596959F
:1001E00087959C01220F331F880F991F880F991F35
:1001F000880F991F820F931F9A01281B390BC90181
:10020000805D0E94B500CA30D10538F19E01ADEC89
:10021000BCEC0E947C01AC015695479556954795DC
:10022000569547959A010E947C01969587959695DB
:100230008795969587959C01220F331F880F991FEC
:10024000880F991F880F991F820F931F9A01281BEF
:10025000390BC901805D0E94B5009E01ADECBCEC7C
:100260000E947C019695879596958795969587959A
:100270009C01220F331F880F991F880F991F880F29
:10028000991F820F931F9E01281B390BC901805DA6
:100290000E94B500DF91CF910895CF93DF93EC01D9
:1002A00003C00E94B500219688818111FACFDF91A9
:1002B000CF910895A1E21A2EAA1BBB1BFD010DC010
:1002C000AA1FBB1FEE1FFF1FA217B307E407F50706
:1002D00020F0A21BB30BE40BF50B661F771F881FE2
:1002E000991F1A9469F760957095809590959B0178
:1002F000AC01BD01CF010895A29FB001B39FC00121
:10030000A39F700D811D1124911DB29F700D811D41
:0A0310001124911D0895F894FFCF09
:06031A006D560D0A000003
:00000001FF
