:100000000C9434000C9446000C9446000C9446006A
:100010000C9446000C9446000C9446000C94460048
:100020000C9446000C9446000C9446000C94460038
:100030000C9446000C9446000C9446000C94460028
:100040000C9446000C9446000C9446000C94460018
:100050000C9446000C9446000C9446000C94460008
:100060000C9446000C94460011241FBECFEFD8E03C
:10007000DEBFCDBF21E0A0E0B1E001C01D92A03AFB
:10008000B207E1F70E9477000C948D010C940000F8
:1000900082E480937C0084E880937A0010927B0055
:1000A0000895ECE7F0E09081907F8F70892B80833A
:1000B000EAE7F0E080818064808380917A0086FDA9
:1000C000FCCF209178008091790090E0982F8827CC
:1000D000822B08959C01A8E8B3E10E947E012FEFD6
:1000E00033E040E050E00E945C01C90108950E94A5
:1000F00048008CE090E00E94B90010E018C0C12FC9
:10010000D0E080E00E9451000E946A00CC0FDD1F09
:10011000FE01E050FF4F9183808381E00E945100F7
:100120000E946A00C05BDE4F998388831F5F18328C
:1001300030F310E01BC0C12FD0E0CC0FDD1FFE015B
:10014000E050FF4F808191810E94CB008CE20E94A1
:10015000C400C05BDE4F888199810E94CB008DE096
:100160000E94C4008AE00E94C4001F5F183218F386
:10017000FFCF9093C5008093C40088E08093C100B6
:1001800086E08093C20008959091C00095FFFCCF57
:100190008093C6000895CF93DF93EC01883E23E05F
:1001A0009207A0F09C0136952795369527953695B0
:1001B0002795A5ECB0E20E947E01929582958F7002
:1001C00089279F708927805D0E94C400C436D105AD
:1001D00048F19E013695279536952795ABE7B4E112
:1001E0000E947E01AC01569547959A01ADECBCEC9E
:1001F0000E947E0196958795969587959695879509
:100200009C01220F331F880F991F880F991F880F99
:10021000991F820F931F9A01281B390BC901805D1A
:100220000E94C400CA30D10538F19E01ADECBCEC8F
:100230000E947E01AC015695479556954795569577
:1002400047959A010E947E01969587959695879588
:10025000969587959C01220F331F880F991F880F51
:10026000991F880F991F820F931F9A01281B390B22
:10027000C901805D0E94C4009E01ADECBCEC0E94EF
:100280007E019695879596958795969587959C017D
:10029000220F331F880F991F880F991F880F991FEE
:1002A000820F931F9E01281B390BC901805D0E949C
:1002B000C400DF91CF910895A1E21A2EAA1BBB1BA7
:1002C000FD010DC0AA1FBB1FEE1FFF1FA217B30722
:1002D000E407F50720F0A21BB30BE40BF50B661F38
:1002E000771F881F991F1A9469F7609570958095FC
:1002F00090959B01AC01BD01CF010895A29FB00173
:10030000B39FC001A39F700D811D1124911DB29F49
:0E031000700D811D1124911D0895F894FFCFEA
:00000001FF
