:100000000C9434000C9446000C9446000C9446006A
:100010000C9446000C9446000C9446000C94460048
:100020000C9446000C9446000C9446000C94460038
:100030000C9446000C9446000C9446000C94460028
:100040000C9446000C9446000C9446000C94460018
:100050000C9446000C9446000C9446000C94460008
:100060000C9446000C94460011241FBECFEFD8E03C
:10007000DEBFCDBF21E0A0E0B1E001C01D92A43001
:10008000B207E1F70E9477000C94C2000C940000C4
:1000900082E480937C0084E880937A0010927B0055
:1000A0000895ECE7F0E09081907F8F70892B80833A
:1000B000EAE7F0E080818064808380917A0086FDA9
:1000C000FCCF209178008091790090E0982F8827CC
:1000D000822B08959C01A8E8B3E10E94B3002FEFA2
:1000E00033E040E050E00E949100C90108950E9471
:1000F000480082E00E945100909303018093020126
:1001000080910201909103010E946A009093010185
:100110008093000183EF91E00197F1F700C00000A8
:10012000E8CFA1E21A2EAA1BBB1BFD010DC0AA1F1E
:10013000BB1FEE1FFF1FA217B307E407F50720F050
:10014000A21BB30BE40BF50B661F771F881F991FCB
:100150001A9469F760957095809590959B01AC0114
:10016000BD01CF010895A29FB001B39FC001A39F1D
:10017000700D811D1124911DB29F700D811D1124E0
:08018000911D0895F894FFCFD2
:00000001FF
