S01000004C6162345F4144432E73726563AA
S11300000C9434000C943E000C943E000C943E007E
S11300100C943E000C943E000C943E000C943E0064
S11300200C943E000C943E000C943E000C943E0054
S11300300C943E000C943E000C943E000C943E0044
S11300400C943E000C943E000C943E000C943E0034
S11300500C943E000C943E000C943E000C943E0024
S11300600C943E000C943E0011241FBECFEFD8E048
S1130070DEBFCDBF0E9449000C944C000C940000DC
S113008082E480937C0084E880937A0010927B0061
S10F009008950E944000FFCFF894FFCFB9
S9030000FC
