:100000000C9434000C9451000C9451000C94510049
:100010000C9451000C9451000C9451000C9451001C
:100020000C9451000C9451000C9451000C9451000C
:100030000C9451000C9451000C9471000C945100DC
:100040000C9451000C9451000C9451000C945100EC
:100050000C9451000C9451000C9451000C945100DC
:100060000C9451000C94510011241FBECFEFD8E026
:10007000DEBFCDBF11E0A0E0B1E0ECEFF1E002C0E7
:1000800005900D92AA30B107D9F721E0AAE0B1E0BE
:1000900001C01D92AC30B207E1F70E94C5000C947C
:1000A000FC000C940000E82FF0E0E050FF4F2081AE
:1000B00088B1807C922F9F73892B88B926FF04C05A
:1000C00085B1806185B9089585B18F7E85B9089520
:1000D00082E084BD9DE497BD80936E0084E085BD81
:1000E00008951F920F920FB60F9211242F933F93F2
:1000F0004F935F936F937F938F939F93AF93BF9330
:10010000EF93FF9385B1816085B985B1826085B930
:1001100080910A01811112C080910B019DEC899F91
:10012000812D11248695869586950E94530085B170
:100130008E7F85B981E080930A0116C080910B0102
:100140009DEC899F912D1124969596959695990FE2
:10015000292F220F220F920F891B0E94530085B175
:100160008D7F85B910920A01FF91EF91BF91AF91F8
:100170009F918F917F916F915F914F913F912F91BF
:100180000F900FBE0F901F90189587B18F6387B99E
:1001900084B1836184B984B18F7784B985B1806873
:1001A00085B985B1816085B985B18D7F85B90E949A
:1001B00068007894C0E010C08FE493EC0197F1F7E9
:1001C00000C000001F9907C010920B0180910B0125
:1001D0000E94530003C0CF5FCA3070F3CA3051F79A
:1001E00080910B018F5F80930B0180910B0184360E
:0C01F00008F310920B01DECFF894FFCF53
:0A01FC003F065B4F666D7D077F6FC5
:00000001FF
