:100000000C9434000C9449000C9449000C94490061
:100010000C9449000C9449000C9449000C9449003C
:100020000C9449000C9449000C9449000C9449002C
:100030000C9449000C9449000C9449000C9449001C
:100040000C9449000C9449000C9449000C9449000C
:100050000C9449000C9449000C9449000C944900FC
:100060000C9449000C94490011241FBECFEFD8E036
:10007000DEBFCDBF11E0A0E0B1E0E4E2F1E002C0FC
:1000800005900D92AA30B107D9F70E9460000C9438
:1000900090000C940000E82FF0E0E050FF4F20812A
:1000A00088B1807C922F9F73892B88B926FF04C06A
:1000B00085B1806185B9089585B18F7E85B9089530
:1000C00087B18F6387B984B1836184B984B18F7735
:1000D00084B985B1806885B985B1816085B985B1FC
:1000E0008D7F85B9D0E001C0D0E08D2F0E944B00FC
:1000F000C0E00EC08FE493EC0197F1F700C0000060
:100100001F9905C080E00E944B00D0E003C0CF5F84
:10011000CA3080F3CA3049F7DF5FDA3028F7E5CF1D
:04012000F894FFCF81
:0A0124003F065B4F666D7D077F6F9D
:00000001FF
