:100000000C9434000C9446000C9446000C9446006A
:100010000C9446000C9446000C9446000C94460048
:100020000C9446000C9446000C9446000C94460038
:100030000C9446000C9446000C9454000C9446001A
:100040000C9446000C9446000C9446000C94460018
:100050000C9446000C9446000C9446000C94460008
:100060000C9446000C94460011241FBECFEFD8E03C
:10007000DEBFCDBF21E0A0E0B1E001C01D92A13004
:10008000B207E1F70E944D000C948F000C94000021
:1000900095B180E2892785B9089584B1806284B9D9
:1000A0000E9481007894FFCF1F920F920FB60F929B
:1000B00011242F933F934F935F936F937F938F936D
:1000C0009F93AF93BF93EF93FF93809100018F5F56
:1000D000809300018A3020F0109200010E944800B5
:1000E000FF91EF91BF91AF919F918F917F916F9110
:1000F0005F914F913F912F910F900FBE0F901F90E6
:10010000189582E084BD16BC9DE497BD85BB84E054
:1001100085BDEEE6F0E08081826080830895F894EA
:02012000FFCF0F
:00000001FF
