:100000000C9434000C943E000C943E000C943E0082
:100010000C943E000C943E000C943E000C943E0068
:100020000C943E000C943E000C943E000C943E0058
:100030000C943E000C943E000C943E000C943E0048
:100040000C943E000C943E000C943E000C943E0038
:100050000C943E000C943E000C943E000C943E0028
:100060000C943E000C943E0011241FBECFEFD8E04C
:10007000DEBFCDBF0E9440000C945A000C940000DB
:100080008FEF84B917B81AB885B1806285B92FEEA1
:1000900089E492E0215080409040E1F700C00000E8
:1000A00085B18F7D85B983E294EF0197F1F700C0A8
:0800B0000000EACFF894FFCF35
:00000001FF
